:03000000020C05EA
:0C0C0500787FE4F6D8FD7581730209B415
:100AC00020202057454C434F4D4520544F20202097
:100AD000002020204D592050524F4A454354202099
:100AE00020002020204D4D4954204D494E492020C2
:100AF000200020202050524F4A45435420202000FF
:100B000020202057616974696E6720466F7220202B
:100B10002020002020205246494420546167202094
:100B20002000313030303342304341370020454DD2
:100B3000504C4F594545204E4F203A20310031301E
:100B400030303342304341450020454D504C4F59E1
:100B50004545204E4F203A20320020494E56414C08
:070B60004944205441470005
:1009B400758920758DFD759850D28E120BCD7BFFF5
:1009C4007A0A79C0120B6D7FC0120BE17BFF7A0AA1
:1009D40079D1120B6D120BB77F01120BE17F8012DC
:1009E4000BE17BFF7A0A79E2120B6D7FC0120BE1F7
:1009F4007BFF7A0A79F2120B6D120BB77F01120B8F
:100A0400E17F80120BE17BFF7A0B7900120B6D7F83
:100A1400C0120BE17BFF7A0B7913120B6DE4F56CBA
:100A2400F56D3098FDC2987408256DF8A699056D8A
:100A3400E56D7002056C640A456C70E6E4F51278A5
:100A4400227C0B7DFFFB7A007908120997EF701264
:100A54007F01120BE17F80120BE17BFF7A0B792D72
:100A64008022783E7C0B7DFF7B007A007908120996
:100A740097EF70247F01120BE17F80120BE17BFF63
:100A84007A0B7949120B6D7FC0120BE1120B6712BE
:100A94000BB7120C11020A007F01120BE17F8012C6
:100AA4000BE17BFF7A0B795A120B6D7FC0120BE1BD
:0C0AB400120B67120BB7120C11020A00A3
:100BCD007F38120BE17F0C120BE17F01120BE17FDD
:040BDD0080020BE1A6
:040BB7007FE87EFD58
:100BBB00E4FDFCC3ED9FEC9E50070DBD00010C80C6
:010BCB00F237
:010BCC002206
:100BE100C2A08F90D2A17F057E00120BBBC2A102D1
:020BF1000BBB3C
:100BF300D2A08F90D2A17F057E00120BBBC2A102AF
:020C03000BBB29
:060B67007B007A00790812
:100B6D008B718A728973AB71AA72A97312080060B6
:100B7D00130573E5737002057214F9120800FF1264
:050B8D000BF380E222E1
:080C1D008F993099FDC2992264
:100B92008B6E8A6F8970AB6EAA6FA97012080060A3
:100BA200130570E5707002056F14F9120800FF1248
:050BB2000C1D80E22291
:0B0C1100E4FF7E647808E4F608DEFCD7
:010C1C0022B5
:10080000BB010689828A83E0225002E722BBFE02F6
:09081000E32289828A83E4932229
:10081900E3F5F009E208B5F06D606B80F3E3F5F0FC
:1008290009E608B5F060605E80F387F009E608B56F
:10083900F054605280F487F009E208B5F048604648
:1008490080F488828C8387F009E0A3B5F03860369C
:1008590080F488828C8387F009E493A3B5F027603C
:100869002580F388828C83E3F5F009E0A3B5F016BF
:10087900601480F388828C83E3F5F009E493A3B5CF
:10088900F004600280F2020944808580E7808E804E
:10089900D2803C8015806C807E809B80B5808B8067
:1008A900A1804F8070803A02095089828A83ECFACC
:1008B900E493F5F0A3C8C582C8CCC583CCE493A35F
:1008C900C8C582C8CCC583CCB5F070606E80E1899B
:1008D900828A83E493F5F0A3E208B5F05E605C8058
:1008E900F289828A83E0F5F0A3E608B5F04D604B02
:1008F90080F389828A83E0F5F0A3E208B5F03C60D1
:100909003A80F389828A83E493F5F0A3E608B5F087
:100919002A602880F2805389828A83ECFAE493F56D
:10092900F0A3C8C582C8CCC583CCE0A3C8C582C81A
:10093900CCC583CCB5F004600280E27FFFB5F0023C
:100949000F2240027F012289828A83ECFAE0F5F0C6
:10095900A3C8C582C8CCC583CCE0A3C8C582C8CC0E
:10096900C583CCB5F0D560D380E389828A83ECFA5C
:10097900E0F5F0A3C8C582C8CCC583CCE493A3C86D
:10098900C582C8CCC583CCB5F0B160AF80E288F030
:10099900ED2402B4040050A3F582EB2402B4040050
:0B09A90050992323458223900892738D
:00000001FF
